:020000040800F2
:103000000000012095610008B9390008BD390008A9
:10301000C1390008C5390008C9390008000000009E
:10302000000000000000000000000000D13900088E
:10303000CD39000800000000D5390008E13A000849
:10304000D9390008DD390008E1390008E539000800
:10305000E9390008ED390008F1390008F5390008B0
:10306000F9390008FD390008013A000800000000A5
:103070000000000000000000000000000000000050
:103080000000000000000000213A0008253A000876
:10309000293A00082D3A0008313A0008353A00086C
:1030A000393A00083D3A0008413A0008453A00081C
:1030B000D53A0008493A00084D3A0008513A00084C
:1030C000553A0008593A00085D3A0008613A00088C
:1030D000653A0008C93A0008693A0008BD3A000894
:1030E0006D3A0008713A0008753A0008793A00080C
:1030F0007D3A0008813A0008853A0008893A0008BC
:103100008D3A0008913A0008953A0008993A00086B
:103110009D3A0008A13A0008A53A0008A93A00081B
:10312000AD3A0008B13A0008B53A0008B93A0008CB
:043130005FF8000044
:1031340003788B4201D0002004E04378934214BF0B
:10314400002001207047C046837B8B4201D00020C1
:1031540004E0C37B934214BF002001207047C046A3
:10316400DFF828C00A489CF80020037807499A42EF
:10317400F9D00B78074AD05C0B780133DBB20B70C3
:103184000B7803F01F030B707047C0463F0100200B
:103194003E01002040010020034A136813B1136864
:1031A400013B13607047C04634010020034A0023EA
:1031B40013701378024A13707047C0463001002020
:1031C40031010020034B1878034B1B78C01A18BF39
:1031D400012070473101002030010020DFF820C0B9
:1031E40008489CF80020037805499A42F9D00B78E6
:1031F400054AD05C0B780133DBB20B707047C046D4
:10320400310100203001002030000020014B186003
:103214007047C04638010020034B1868D0F1010004
:1032240038BF00207047C0463801002030B50A4836
:1032340081B040F2255102F0ADFE50B1074D064871
:103244002C7802F039FE064BC0B218550134E4B2B2
:103254002C7001B030BDC046003801403001002060
:103264003000002000B50C4881B040F2255102F036
:1032740091FE78B1084802F01FFE0849084A0B780D
:10328400C0B2D0540B780133DBB20B700B7803F06F
:103294001F030B7001B000BD004800403E01002038
:1032A4004001002000B581B281B0054802F000FE63
:1032B4000348402102F062FE0028F9D001B000BDAD
:1032C4000048004010B5202104460D4801F05EF985
:1032D400A4B20B48102101F057F90A48214602F024
:1032E400E7FD0848402102F049FE0028F9D01021EA
:1032F400034801F04BF90248202101F045F910BDC3
:10330400000C01400038014000B5034881B00021A1
:1033140002F054FD01B000BD0038014010B5044670
:10332400012001F01DFE074B1C601A461368002B98
:10333400FCD16FF0010001F013FE002001F010FE3B
:1033440010BDC0463401002000B54FF0804081B06C
:10335400022102F08FFCC8B102214FF0804002F03C
:1033640095FC4FF0804002F061FC094B186019682D
:10337400084B4FF080401B88C91889B202F010FC3A
:10338400054A136813B11368013B136001B000BD13
:103394002C000020080000203801002000B542F273
:1033A400283081B001F0D6FD012001F0EFFD01B01D
:1033B40000BDC04670B588B00DF1160528460DF164
:1033C40006064FF0804402F001F9304602F00AF993
:1033D400204602F061FC4FF0FF33ADF81A3020466E
:1033E4004FF000032946ADF81630ADF81C30ADF8A7
:1033F400183001F0F3FD0122204640F2D22102F000
:10340400DFF94FF00003ADF80630ADF80830ADF841
:103414000E300B4B20461B883146ADF80C3001F0C2
:1034240007FE2046002102F05FFA20460221012215
:1034340002F016F92046012102F0F6F808B070BD3A
:103444000800002070B584B0054668460C4602F0BA
:1034540089FC4FF00003ADF80430ADF80630ADF848
:103464000830ADF80C304FF00C036E460094ADF804
:103474000A308DB9144802F009FE0A20FFF74EFF06
:103484001148694602F0B4FD0F4840F2255101226B
:1034940002F0A2FC0C4812E0022D13D10B4802F0FA
:1034A400F5FD0A20FFF73AFF0848694602F0A0FD3F
:1034B400064840F22551012202F08EFC0348012106
:1034C40002F07CFC04B070BD0038014000480040AC
:1034D40000B5014681B00020FFF7B4FF01B000BD84
:1034E40070B582B001AD1E4C284601F031F84FF0A2
:1034F4003003ADF8043003261023204629468DF806
:1035040007308DF8066000F0CFFF4FF40863ADF884
:1035140004302046042329468DF8073000F0C4FF08
:103524004FF48863ADF804302046182329468DF8FB
:1035340007308DF8066000F0B7FF0420012101F088
:103544004DF80121074801F049F82046102101F007
:103554001DF82046202101F017F802B070BDC046C6
:10356400000C01400004300070B54FF4405182B0AB
:103574004FF0006001F0ACF901AD4FF4A06001F030
:1035840009F901242523002628468DF804308DF8F6
:1035940005608DF806608DF8074001F005F91C23DD
:1035A40028468DF804308DF805408DF806408DF8D6
:1035B400074001F0F9F8272328468DF804308DF8E8
:1035C40005608DF806408DF8074001F0EDF802B073
:1035D40070BDC04600B581B001F0DCFA4FF4803014
:1035E40001F0F8FA01F010FB012824D1102000F0BA
:1035F400DFFC022000F0C4FC002001F04FFB00209F
:1036040001F060FB4FF4806001F052FB4FF4803016
:103614004FF4E01101F020FB012001F027FB3920D9
:1036240001F050FC0028FAD0022001F025FB01F043
:103634002DFB0828FBD1012144F2080001F0F8FB1E
:103644000448012101F002FC012001F033FA01B029
:1036540000BDC0460100040070B55C495C4E8A7828
:10366400CB78012043EA022333800A794B79594C01
:1036740043EA0223584A594D13808A79CB7943EAA5
:103684000223574A13800A7A4B7A43EA0223554AA3
:1036940013808A7ACB7A43EA0223534A13800A7B43
:1036A4004B7B242143EA0223504A138000F0E2FBBF
:1036B40024212080022000F0DDFB4D4B24211880C2
:1036C400032000F0D7FB24212880042000F0D2FB43
:1036D400484B24211880052000F0CCFB464B2421C4
:1036E4001880062000F0C6FB444B18802388B3F5ED
:1036F400AF7F03D83288B2F5AF7F09D90520062100
:10370400C82200F09BFB052008214FF4FA7237E031
:10371400B3F5AF7F03D02B88B3F5C87F07D3B2F5D9
:10372400AF7F0FD02E4B1B88B3F5C87F0AD205207C
:1037340006214FF4F57200F081FB0520082140F2C8
:10374400F3121DE0254B1B88B3F5C87F04D22A4B26
:103754001B88B3F5967F09D8214B1B88B3F5C87F26
:1037640010D2214B1B88B3F5967F0BD9012006217B
:103774004FF4C87200F062FB012008214FF4487234
:1037840000F05CFB1A4B1A8840F28A239A420FD944
:10379400184B1B88B3F5167F0AD90620062140F280
:1037A400F51200F04BFB062008214FF4FF7209E0EC
:1037B400062006214FF4FA7200F040FB062008218F
:1037C4004FF4487200F03AFB70BDC0467A01002005
:1037D4006E010020620100207001002066010020BB
:1037E400720100207401002076010020780100207D
:1037F40064010020680100206A0100206C0100209F
:10380400F0B51C46844603EB43050134A81C81B083
:103814000E4604EB440461461746043500F0BCF937
:103824002046314600F0B8F92846394600F0B4F98C
:1038340001B0F0BD70B5FE2000F0A2F9832000F0C5
:10384400A5F900201E2100F0A7F90120022100F0B3
:10385400A3F90F4A0023137014460E4E0E4D0CE0CC
:1038640005EB4C035A7816F80C00634615F81C1047
:10387400FFF7C6FF23780133237094F800C0BCF12E
:10388400050FEDD9162000F08DF900F0C7FA70BDD0
:103894003C0100200A0000207A01002070B5FFF7E7
:1038A40099FE394CFFF760FEFFF71AFEFFF776FD2D
:1038B400FFF780FD0121002000F048FB01204FF4B8
:1038C4006141FFF7BFFD22880120062100F0B6FA0E
:1038D40062882E4C0120082100F0B0FA22880220D0
:1038E400062100F0ABFA6288294C0220082100F07E
:1038F400A5FA22880320062100F0A0FA6288254C4C
:103904000320082100F09AFA22880420062100F0FE
:1039140095FA6288204C0420082100F08FFA22884E
:103924000520062100F08AFA62881C4C0520082133
:1039340000F084FA22880620062100F07FFA6288CB
:103944000620082100F07AFA154D164E2C46002167
:10395400154811E02A7833789A42FBD02378C25C68
:1039640023780133DBB22370237803F01F03237021
:103974000E4B5A544B1CD9B20B29EBD90C4B197072
:10398400FFF758FFE3E7C046100000201C000020AA
:103994001400002020000020180000202400002033
:1039A4003F0100203E010020400100207A01002058
:1039B4003C0100207047C046FEE7C046FEE7C04613
:1039C400FEE7C046FEE7C0467047C0467047C046A3
:1039D4007047C0467047C0467047C0467047C046EF
:1039E4007047C0467047C0467047C0467047C046DF
:1039F4007047C0467047C0467047C0467047C046CF
:103A04007047C0467047C0467047C0467047C046BE
:103A14007047C0467047C0467047C0467047C046AE
:103A24007047C0467047C0467047C0467047C0469E
:103A34007047C0467047C0467047C0467047C0468E
:103A44007047C0467047C0467047C0467047C0467E
:103A54007047C0467047C0467047C0467047C0466E
:103A64007047C0467047C0467047C0467047C0465E
:103A74007047C0467047C0467047C0467047C0464E
:103A84007047C0467047C0467047C0467047C0463E
:103A94007047C0467047C0467047C0467047C0462E
:103AA4007047C0467047C0467047C0467047C0461E
:103AB4007047C0467047C04600B581B0FFF7D2FBDF
:103AC40001B000BD00B581B0FFF7B0FB01B000BD8F
:103AD40000B581B0FFF738FC01B000BD00B581B07E
:103AE400FFF75AFB01B000BD00B581B0FFF794FBAE
:103AF40001B000BD00B50346642081B000FB03F0B3
:103B0400FFF784FB01B000BD70B506460D460024E6
:103B140009E0FFF757FB08B9254606E0FFF75EFB0F
:103B2400631C3055DCB2AC42F3DB284670BDC046A2
:103B340070B506460D46002404E0305DFFF7C2FB75
:103B4400631CDCB2AC42F8DB284670BD00B581B022
:103B5400FFF72CFB01B000BD00B581B0FFF7D4FB2B
:103B640001B000BD00B5084681B0FFF7B1FC0120EB
:103B740001B000BD014B18687047C0462800002002
:103B8400014B98707047C04688010020014B1871A2
:103B94007047C04688010020014B1B1859717047BB
:103BA40088010020014BD8707047C046880100206E
:103BB400034B1B7918420CBF002001207047C046FC
:103BC40028020020014BD8787047C0462802002004
:103BD400014B1B18587970472802002000EB012084
:103BE40080B27047C0B2704700F47F40000A70474B
:103BF40030B5534981B00B68002B00F09F80514BC6
:103C0400514A9B78FE2B00F09580126822B94F4BE5
:103C14001A704F4B06221A704C4D4D4C2B7821785C
:103C24004C48C91AC018FFF76FFF2B78C0182378C7
:103C3400C0B28342287003D9FFF756FF012808D089
:103C4400424B00201A78434902F1FF3CA2F1020ED4
:103C540019E02B783C4A0BB9062300E007231360D4
:103C64000022374B4FE00B5CFF2B04D101EB000328
:103C74005B78FF2B09D0704503D111F80C30FF2B72
:103C840003D0431CD8B26045EDDB88B10021C0EB02
:103C9400020CDFF8C0E006E00EEB01031B5C0EF83B
:103CA40001304B1CD9B26145F6DB284B121A1A704D
:103CB400264D274C95F800C02378634521D8214B25
:103CC40024489A7883789A4203D01F4B07221A60BB
:103CD400C6E7C3780433D9B28C4521700BD2604453
:103CE400CCEB0101FFF710FF2B78C0182378C0B28A
:103CF4008342287005D8174B0021D87800229C46AF
:103D04000AE0114B05221A6018E00CEB01039B78C2
:103D14001344DAB24B1CD9B28842F6DA0D4B6FEA7F
:103D240002021B18DB78D2B293420549064A01D03D
:103D3400072300E00123136000230B6001B030BDB2
:103D44007002002088010020280000206F0200205B
:103D54006E0200202802002030B52D4981B00B6886
:103D6400012B52D02B48012390F803C00B60BCF107
:103D7400980F0BD803795A1ED2B2833B18BF012384
:103D8400052A94BF002303F001032BB1224A042324
:103D9400136000230B6038E04FF0FF33037043706F
:103DA4000021002206E000EB01039B781344DAB201
:103DB4004B1CD9B28C45F6DA164B6FEA0202634407
:103DC400DA70154B1B68063B012B01D8FFF7BEFECA
:103DD400104DEC7828460434E4B22146FFF7A8FEDF
:103DE400C0B2844205D00C4B02221A600022084B58
:103DF4000AE02B79022B02D1A879063000E00620D4
:103E0400FFF778FE044B00221A6001B030BDC046B3
:103E140070020020880100202800002010B5FFF760
:103E24009BFF054A13682BB91446FFF7E1FE23688C
:103E3400052BFAD010BDC0462800002000B50B4B5E
:103E440081B01B6894467BB9094A032313711FFA96
:103E54008CF393711B0AD371052390705171D37045
:103E6400FFF7DCFF01B000BDFEE7C0467002002092
:103E74008801002000B50B4B81B01B688BB90A4A3E
:103E8400022313719371042390705171D370FFF75F
:103E9400C5FF064B9A79587900EB022080B201B035
:103EA40000BDFEE7700200208801002028020020E7
:103EB40000B5094B81B01B68944663B9074B0322D4
:103EC4001A7104229870597183F806C0DA70FFF7EA
:103ED400A5FF01B000BDFEE77002002088010020AC
:103EE40000B50A4B81B01B6873B9094A02231371E8
:103EF4000123937104239070D3705171FFF78EFFE7
:103F0400044B587901B000BDFEE7C04670020020A2
:103F1400880100202802002000B5074B81B01B68EF
:103F24004BB9064B01221A7102229870DA70FFF71E
:103F340075FF01B000BDFEE770020020880100207B
:103F440000B581B0FFF708FE01B000BD00B5094B14
:103F5400013193FBF1F381B01946FFF703FE30B151
:103F6400054B01221A60054B00221A60012001B0A2
:103F740000BDC04680841E0028000020700200207E
:103F8400044A136803F0380313601368184310607D
:103F94007047C04600200240044A136823F0080317
:103FA40013601368184310607047C0460020024035
:103FB400044A136823F01003136013681843106055
:103FC4007047C04600200240034B044A5A6002F185
:103FD40088325A607047C04600200240230167457A
:103FE400024A136943F080031361704700200240C2
:103FF400014BD8698008704700200240014B186AC1
:104004007047C04600200240024BD869400800F0C7
:104014000100704700200240024B1868400900F07C
:10402400010070470020024021B1054A136940EAAB
:10403400030303E0024A136923EA00031361704790
:1040440000200240012804D1054BDB6903F0010084
:1040540005E0034BDB6818420CBF002001207047C9
:1040640000200240014BD8607047C0460020024047
:10407400094AD36813F0010F01D001200BE0D36883
:1040840013F0040F01D0022005E0D36813F0100FE1
:1040940014BF0320042070470020024010B5234AB7
:1040A40082B0D368014613F0010F01D001202AE049
:1040B400D36813F0040F01D0022024E0D36813F076
:1040C400100F14BF032004201DE00194CDF804C098
:1040D40002E0019B013B0193019B002BF9D1D368C2
:1040E40013F0010F01D001200BE0D36813F0040F8B
:1040F40001D0022005E0D36813F0100F14BF032091
:104104000420013903E0094A00244FF0FF0C0B1E80
:1041140018BF0123012814BF002303F00103002B5F
:10412400D3D1002908BF052002B010BD00200240F1
:10413400F0B5134B134C81B0A36003F188330546EB
:10414400A3600F200E461746FFF7A8FF042815D1D9
:1041540023690D4A43F01003236145F0F80346EA4E
:10416400030347EA030353800F20FFF797FF012857
:104174001FBF226941F6EF731340236101B0F0BD04
:10418400230167450020024000F8FF1F30B50546B3
:1041940081B040F6FF70FFF781FF04283CD11F4C2B
:1041A4001F4B00F57E60A36003F18833A36023698D
:1041B4001B3043F020032361236943F04003236150
:1041C400FFF76CFF042820D1236941F6DF7203EA6C
:1041D40002022261236943F0100323611DB1114BD4
:1041E4004FF0000202E00F4B4FF0A5021A8040F698
:1041F400FF70FFF753FF01280ED0084941F6EF7313
:104204000A6902EA03030B6106E001281FBF226961
:1042140041F6DF731340236101B030BD002002403A
:104224002301674500F8FF1F10B504460F20FFF770
:1042340035FF042850D1294A294B6FEA04049360BE
:1042440003F1883393601369E1B243F01003FF294B
:10425400136104D0234B0F201981FFF71FFF04F4CF
:104264007F431A0AB2F1FF0318BF0123042814BFC5
:10427400002303F0010323B11A4B0F205A81FFF7E7
:104284000DFF04F47F031A0CB2F1FF0318BF0123DE
:10429400042814BF002303F0010323B1114B0F20A2
:1042A4009A81FFF7FBFE220EB2F1FF0318BF012330
:1042B400042814BF002303F0010323B1094B0F208A
:1042C400DA81FFF7EBFE01281FBF044941F6EF73C3
:1042D4000A69134018BF0B6110BDC046002002409C
:1042E4002301674500F8FF1F70B506460F200D46F1
:1042F400FFF7D4FE042814D10A4C0B4B0F20A36003
:1043040003F18833A360236943F0100323613580EC
:10431400FFF7C4FE01281FBF226941F6EF73134063
:10432400236170BD002002402301674570B5064635
:104334000F200D46FFF7B2FE04280FD1084C0F20C2
:10434400236943F0010323613580FFF7A7FE0128A9
:104354001FBF226941F6FE731340236170BDC0463E
:104364000020024070B506460F200D46FFF796FE6A
:10437400042817D10C4C0F20236943F00103236157
:10438400ABB23380FFF78AFE042804D12B0C738070
:104394000F20FFF783FE01281FBF226941F6FE7339
:1043A4001340236170BDC0460020024010B540F6A2
:1043B400FF70FFF773FE04282CD1174C174B00F540
:1043C4007E60A36003F18833A36023691B3043F04C
:1043D40020032361236943F040032361FFF75EFE5A
:1043E400042810D1226941F6DF7302EA0303236132
:1043F40023694FF0A50243F010032361084B0F20FB
:104404001A80FFF74BFE01281FBF226941F6EF73A4
:104414001340236110BDC0460020024023016745BC
:1044240000F8FF1F10B540F6FF70FFF737FE0428B1
:1044340013D10A4C236903432361236900F57E6089
:1044440043F0400323611B30FFF728FE01281FBF00
:10445400226941F6FB731340236110BD0020024022
:1044640030B5054681B040F6FF70FFF717FE04280B
:1044740015D10C4C00F57E6023691B3043F0020318
:1044840023616561236943F040032361FFF706FE5E
:1044940001281FBF226941F6FD731340236101B057
:1044A40030BDC04600200240F0B5CD780E8815F02E
:1044B400100F18BF8B7805F00F0718BF1F4316F0B5
:1044C400FF0F83B01ED004680021012212FA01F309
:1044D40003EA060C9C4511D18A000F23934017FA76
:1044E40002F224EA03041443282D019308BFC0F800
:1044F40014C003D0482D08BFC0F810C001310829EA
:10450400E3D10460FF2E20D944680021012201F187
:10451400080312FA03F303EA060C9C4511D18A003E
:104524000F23934017FA02F224EA03041443282DBC
:10453400019308BFC0F814C003D0482D08BFC0F8C9
:1045440010C001310829E1D1446003B0F0BDC04678
:104554004FF0FF330380022383700423C37070473A
:10456400836819420CBF002001207047806880B224
:104574007047C046C36819420CBF00200120704731
:10458400C06880B27047C04601617047416170479E
:104594000AB1016100E041617047C046C1607047E3
:1045A40041F48033836181618361836983697047E6
:1045B400DFF818C04FF68073DCF8002041EA0011E0
:1045C40002EA03031943CCF80010704700000140CD
:1045D400014B18607047C0461C00204230B500F4FF
:1045E400401304040D461449240CB3F5401FD1F8BC
:1045F40004C006D14B682CF0706223F070634B60EA
:1046040010E010F4801F05D000F47022120C032374
:10461400934003E0430D1B0114FA03F32CEA030354
:1046240043F0706225B1430D1B0114FA03F31A43DE
:10463400014B5A6030BDC0460000014010B501F086
:104644000304A4000F23A340A040DFF820C089087E
:1046540002315CF8212022EA03024CF821205CF8A4
:10466400213018434CF8210010BDC0460000014021
:1046740000B50120012181B000F0F6FB01200021EA
:1046840000F0F2FB01B000BD00B5274B83B09842A7
:1046940001902BD00CD8A3F5006398421AD003F5EF
:1046A400806398421CD0A3F5006398423AD10BE092
:1046B4001E4B984226D003F58063984228D0A3F578
:1046C400006398422ED117E00420012100F0CCFBB6
:1046D400042024E00820012100F0C6FB08201EE08D
:1046E4001020012100F0C0FB102018E0202001213F
:1046F40000F0BAFB202012E04020012100F0B4FBBE
:1047040040200CE08020012100F0AEFB802006E078
:104714004FF48070012100F0A7FB4FF4807000215A
:1047240000F0A2FB03B000BD00140140001C0140D6
:104734000B4B4FF0FF316FF07042C3F880101846F6
:10474400C3F88420C3F88011C3F884210021002217
:1047540002F1C00301320F2A40F82310F8D1704748
:1047640000E100E0094A4FF0206309495360002347
:104774009360D160136153619361D3611362536297
:10478400013B9362D36213637047C04600ED00E0BF
:104794000000FA0540F0BE60024B40F42020D860CF
:1047A4007047C04600ED00E030B5C37805785BB3D0
:1047B4001A4B4178DA681A4C6FEA020202F4E0629A
:1047C400120AC2F1040399400F23D340827805F002
:1047D400030013400B43C0001B01FF2282408340AF
:1047E4004FEA950C0CF1C00C54F82C10134021EA3C
:1047F40002010B4344F82C3005F01F0201239340BF
:10480400690944F8213008E005F01F0201239340B0
:104814006909034A203142F8213030BD00ED00E03F
:1048240000E100E00023037043708370C37070479D
:10483400034B04485B6803EA0000000B7047C04662
:1048440000ED00E000F03F0000F01F0301229A4059
:104854004009054B403053F820001040904214BFEB
:10486400002001207047C04600E100E0014B1860C1
:104874007047C04600EF00E04109012300F01F002B
:104884008340024A603142F82130704700E100E081
:10489400024B58688005800D7047C04600ED00E06B
:1048A40000F01F0301229A404009054B803053F861
:1048B40020001040904214BF002001207047C046E1
:1048C40000E100E0014B18687047C04600ED00E0CD
:1048D40021F0604121F07F01014B01439960704751
:1048E40000ED00E0014A024BDA6070470400FA056B
:1048F40000ED00E0014A024BDA6070470100FA055E
:1049040000ED00E021B1054A136940EA030303E026
:10491400024A136923EA00031361704700ED00E0C3
:1049240000F01F00012313FA00F021B1054A536A75
:1049340040EA030303E0034A536A23EA0003536291
:104944007047C04600ED00E010B5144CE3686FEA10
:10495400030303F4E0631B0AC3F1040C01FA0CF132
:104964004FF0FF0C2CFA03F31A400A4300F0C00185
:10497400400900F018000CFA00FC12018240890979
:10498400063154F8213023EA0C0344F8213054F85A
:1049940021301A4344F8212010BDC04600ED00E048
:1049A400800A00F00F0001238340044A506A03EA9E
:1049B4000000984214BF00200120704700ED00E081
:1049C40000F01F0001238340024A51680B435360E7
:1049D4007047C04600ED00E000F01F0001380123DD
:1049E4008340024A51680B435360704700ED00E076
:1049F400800B00F00F0001238340044A506A03EA4D
:104A04000000984214BF00200120704700ED00E030
:104A1400830C13F0030302D10D4BD86A17E0012B6A
:104A240013D103F1604303F56C43FE33020D0133EC
:104A340002F00302996AD30031FA03F0022A14BF88
:104A440000F00F0000F0FF0001E0014B186B70470D
:104A540000ED00E010F4800F0BBF024B014B586BCC
:104A6400986B704700ED00E000B581B001F088FB61
:104A740001B000BD00B5000181B001F07EFB01B0C2
:104A840000BDC04600B581B001F075FB01B000BDAA
:104A940000B581B001F06DFB01B000BD00B581B07F
:104AA40001F065FB01B000BD00B581B001F05DFB14
:104AB40001B000BD014B18607047C04620000E4293
:104AC400014B18607047C04610000E42034A136839
:104AD40023F0E003184310607047C04600700040A4
:104AE400014B18607047C046A0000E42034B5B6840
:104AF40018420CBF002001207047C04600700040DF
:104B0400024A136843EA8003136070470070004050
:104B14000B4A00B5136881B043F0040313601368B3
:104B240043F00203136002F1204202F5FA4210320C
:104B3400136843F00403136001F0F2FA01B000BDFE
:104B4400007000400C4A00B5136881B023F00303E1
:104B54001843106002F1204202F5FA421032136841
:104B6400012943F00403136002D101F0D9FA01E0F2
:104B740001F0D8FA01B000BD0070004010B54FF04C
:104B840080542046012100F07DF92046002100F0E8
:104B940079F910BD0D4A136843F00103136051689D
:104BA4000B4B01EA03035360136823F0847323F46B
:104BB40080331360136823F480231360536823F451
:104BC400FE035360002393607047C0460010024008
:104BD4000000FFF80B4AB0F5803F136823F48033DC
:104BE4001360136823F48023136003D0B0F5802F7F
:104BF40007D102E01368034302E0136843F4A023DF
:104C0400136070470010024082B0002309490193E9
:104C14000A68019B013312F4003F019303D1019B05
:104C2400B3F5A06FF4D1034B1868400C00F00100F9
:104C340002B0704700100240034A136823F0F803DF
:104C440043EAC0031360704700100240014B186030
:104C54007047C04600004242034A536823F47C1361
:104C6400184308435060704700100240014B18601D
:104C74007047C04660004242034A536823F003036E
:104C8400184350607047C04600100240024B5868F9
:104C940000F00C007047C04600100240034A5368FD
:104CA40023F0F003184350607047C04600100240E0
:104CB400034A536823F4E063184350607047C046C6
:104CC40000100240034A536823F4605343EAC003CC
:104CD400536070470010024021B1054A137840EA3E
:104CE400030303E0024A137823EA000313707047B6
:104CF40009100240014B18607047C046D800424278
:104D0400034A536823F44043184350607047C04635
:104D140000100240064A002301281370137008BFD4
:104D2400107003D0042801D1052313707047C046C6
:104D340020100240014B18607047C0468004424274
:104D4400024A136A184310627047C04600100240BA
:104D5400014B18607047C0463C04424229498446CE
:104D64004B6803F00C03042B21D0082B1FD14B6894
:104D740003F470139B0C9A1C4B6813F4803F08BF18
:104D8400C2EB421306D04B6813F4003F4FEA4213C0
:104D940006D09B1AC3EB831302EBC3031B0207E089
:104DA4009B1AC3EB831302EBC3035B0200E0164BB5
:104DB4001448CCF800304368144A03F0F0031B098C
:104DC400D35CDCF80010D940CCF80410436803F439
:104DD400E0631B0AD35C31FA03F3CCF80830436870
:104DE40003F46053DB0AD35C094AD940CCF80C10B5
:104DF400436803F440439B0BD35CB1FBF3F1CCF861
:104E0400101070470010024000127A00E861000898
:104E1400F861000821B1054A536940EA030303E03D
:104E2400024A536923EA00035361704700100240A9
:104E340021B1054A936940EA030303E0024A9369F6
:104E440023EA0003936170470010024021B1054A30
:104E5400D36940EA030303E0024AD36923EA000367
:104E6400D36170470010024021B1054AD36840EA7B
:104E7400030303E0024AD36823EA0003D3607047C4
:104E84000010024021B1054A136940EA030303E01C
:104E9400024A136923EA00031361704700100240B9
:104EA400014B18607047C04640044242014B1860F1
:104EB4007047C0464C004242014B18707047C046D0
:104EC400071002404309012B08D103F1804303F585
:104ED400023303F5FF6307331B680CE0022B08D190
:104EE40003F1804303F5023303F5FF6306331B6AC2
:104EF40001E0044B5B6A00F01F0033FA00F000F09D
:104F04000100704700100240024A536A43F0807364
:104F14005362704700100240034B9B6818420CBF59
:104F2400002001207047C04600100240014B187059
:104F34007047C0460A100240042803D1044A13688B
:104F4400034303E0024A136823F004031360704729
:104F540010E000E0014B58607047C04610E000E0EC
:104F6400012803D1084A1368034306E010F1020F35
:104F740005D1054A136823F00103136002E0024BD4
:104F840000229A607047C04610E000E020B1054A54
:104F9400136843F0020303E0024A136823F0020398
:104FA4001360704710E000E0014B98687047C046FA
:104FB40010E000E0C308022B024606D103F160436F
:104FC40003F560430E33186801E0034BD868D04002
:104FD40000F001007047C04610E000E0038882B092
:104FE40003F08F0303800388CA889BB213434A8863
:104FF400019013439BB203808B880B4A83850B88F3
:105004008C4603854FF001038382084B984214BFFA
:1050140000230123904208BF43F0010313B19CF81D
:105024000830038602B07047002C01400034014070
:10503400038C8C4623F001031B041B0C0384018C9A
:105044008388F0B59DB2038BBCF808209EB2BCF8EF
:10505400023021F00201134309049BB2090C43EA14
:105064000104BCF80630BCF8007083861A4B1B4A56
:10507400984214BF0023012383B0904208BF43F039
:1050840001030190EBB102F14042A2F53052BCF8A9
:105094000A30093A04EA02021A434FF6FB7302EAA1
:1050A4000303BCF8042047F6FF4143EA0204BCF8BA
:1050B4000E30BCF80C2005EA010113439BB243EA0D
:1050C40001054FF68F7306EA03033B438580038390
:1050D400048403B0F0BDC04600340140002C0140FC
:1050E400038CF0B523F010031B041B0C0384038C06
:1050F400828823F0200395B2028B1B0496B20A899E
:105104001B0C43EA02134A889BB243EA02139CB283
:10511400CB880F8803871E4B1E4A984214BF002376
:10512400012383B0904208BF43F0010301908C46F1
:105134000BB302F14042A2F53252BCF80A30013AF4
:1051440004EA020242EA03124FF6BF7302EA0303BF
:10515400BCF8042043EA02139CB2BCF80C2047F2CA
:10516400FF3305EA030343EA8203BCF80E209BB233
:1051740043EA82039DB248F6FF7306EA030343EA57
:1051840007239BB285800383048403B0F0BDC0462B
:1051940000340140002C0140038CF0B523F48073EB
:1051A4001B041B0C0384038C828823F4007395B2C4
:1051B400828B1B0496B20A891B0C43EA02234A8899
:1051C4009BB243EA02239CB2CB880F8883871D4B92
:1051D4001D4A984214BF0023012383B0904208BFA4
:1051E40043F0010301908C460BB302F14042A2F557
:1051F4005052BCF80A30013A04EA020242EA03229D
:105204004FF6FF3302EA0303BCF8042043EA022307
:105214009CB2BCF80C2044F6FF7305EA030343EA8E
:105224000213BCF80E209BB243EA02139DB24FF660
:105234008F7306EA03033B4385808383048403B0AE
:10524400F0BDC04600340140002C0140038CF0B591
:1052540023F480531B041B0C0384038C85B09BB282
:10526400029383884A881FFA83FC838B0E889DB23D
:10527400CB880F89A0F84030174B0192174A984207
:1052840014BF00230123904208BF43F0010303909D
:105294000C463BB14FEA8C43A2899B0C43EA821330
:1052A4001FFA83FC48F6FF7305EA030343EA062367
:1052B4009BB2029AA0F804C083834DF6FF7302EAFE
:1052C400030343EA0733019A9BB243EA02339BB2D6
:1052D400038405B0F0BDC04600340140002C0140F9
:1052E4000B8830B504460D4643BB238C498823F014
:1052F40001031B041B0CB5F804C028892384238BE9
:10530400228C23F0F3031B041B0C22F0020243EA59
:10531400001312049BB2120C41F0010143EA0C0386
:105324000A4323832284238BEA8823F00C031B047F
:105334001B0C2383238B9BB213432EE0042B2ED10F
:10534400238CB1F802C023F010031B041B0C8888C3
:1053540009892384238B228C23F440731B0522F0B8
:1053640020021B0D120443EA0133120C9BB242EAE1
:105374000C1243EA002392B29BB242F01002238340
:105384002284238BEA8823F440631B041B0C2383AD
:10539400238B9BB243EA02239BB2238355E0082B61
:1053A400B1F802C08888098925D1238C23F480733D
:1053B4001B041B0C2384A38B228C23F0F30322F401
:1053C40000721B0412041B0C120C43EA011342EA80
:1053D4000C229BB292B2034342F48072A3832284D0
:1053E400A38BEA8823F00C031B041B0CA383A38B5D
:1053F4009BB2134328E0238C23F480531B041B0C1F
:105404002384A38B228C23F440731B0522F40052C3
:105414001B0D120443EA0023120C9BB242EA0C3225
:1054240043EA013392B29BB242F48052A3832284B2
:10543400A38BEA8823F440631B041B0CA383A38B74
:105444009BB243EA02239BB2A38330BD8C46F0B5E2
:10545400BCF800304C888988002C0CBF0227002738
:1054640001290CBF02260126BCF80850002B4BD1A1
:10547400038C23F001031B041B0C0384038B028C99
:1054840023F0F3031B041B0C43EA051322F002026E
:105494009BB212040B43120C44F001010A43038330
:1054A4000284038BBCF8061023F00C031B041B0CB2
:1054B4000383038B9BB20B430383038C23F01003FE
:1054C4001B041B0C0384038B028C23F440731B0505
:1054D40022F030021B0D120443EA0533120C9BB276
:1054E40042F0100243EA062342EA071203830284CD
:1054F400038B23F440631B041B0C0383038B9BB2B9
:1055040043EA01239BB24CE0038C23F010031B04F9
:105514001B0C0384038B028C23F440731B0522F0C1
:1055240020021B0D120443EA0533120C9BB242EA1B
:10553400041243EA012392B29BB242F010020383A5
:105544000284038BBCF8061023F440631B041B0C79
:105554000383038B9BB243EA01239BB20383038C33
:1055640023F001031B041B0C0384038B028C23F024
:10557400F3031B0422F003021B0C120443EA051379
:10558400120C9BB242F0010233433A430383028478
:10559400038B23F00C031B041B0C0383038B9BB2B0
:1055A4000B430383F0BDC0460A884B8813438A88A3
:1055B4001343CA8813430A8913434A8913438A89C4
:1055C40013439BB2A0F844307047C0464FF0FF33FA
:1055D40083804FF000030380C38043800023037261
:1055E4007047C0464FF00003038043808380C3802C
:1055F400038143818381C3817047C0464FF0000318
:10560400038043804FF0010383804FF00003C38085
:10561400038170474FF00003038043808380C3807D
:10562400038143818381704721B103889BB243F096
:10563400010304E0038823F001039B059B0D038011
:105644007047C04629B1B0F844309BB243F40043DC
:1056540003E0B0F844305B045B0CA0F844307047BE
:1056640022B183899BB241EA030303E083899BB29D
:1056740023EA010383817047818270470A43A0F8BB
:105684004820704722B183899BB241EA030303E0B7
:1056940083899BB223EA010383817047038923F042
:1056A40007031B041B0C03817047C046038923F0C6
:1056B40070031B041B0C1943018103899BB243F043
:1056C400070303817047C04610B50C46602C114691
:1056D4009C461AD1038C23F010031B041B0C038477
:1056E400038B028C23F4407322F030021B05120456
:1056F4001B0D120C43F4807342F0100243EA0C3386
:1057040042EA01129BB292B217E0038C23F0010328
:105714001B041B0C0384038B028C23F0F3031B0474
:1057240022F003021B0C120443F00103120C43EA9F
:105734000C1342F001029BB20A43038302840389DF
:1057440023F070031B041B0C44EA03030381038945
:105754009BB243F00703038110BDC046B0F808C0F4
:105764005FFA8CFC41EA0C010A4342EA032292B23A
:105774000281038923F077031B041B0C43F0770396
:1057840003817047B0F808C05FFA8CFC41EA0C0151
:105794000A4342EA032292B2028103899BB243F490
:1057A400804303817047C046B0F808C05FFA8CFCA0
:1057B40041EA0C010A4342EA032292B20281704791
:1057C400018582827047C046038823F070039B05DD
:1057D4009B0D194301807047038923F070031B0458
:1057E4001B0C194301817047B0F808C030B5048B15
:1057F400058C24F4407425F0220524F003042D04C0
:105804002CF0070C24042D0C4FEA0C4C240C2A43D6
:105814004FEA1C4C44F4807442EA031241EA0C013E
:1058240044F0010492B201810483028430BDC04675
:10583400038B23F070031B041B0C19430183704773
:10584400038B23F4E0431B041B0C43EA01239BB2A8
:1058540003837047838B23F070031B041B0C1943D1
:1058640081837047838B23F4E0431B041B0C43EABE
:1058740001239BB28383704721B103889BB243F019
:10588400800304E0038823F080039B059B0D0380C1
:105894007047C04621B183889BB243F0040304E0FF
:1058A400838823F004031B041B0C83807047C046C9
:1058B40021B183889BB243F0080304E0838823F07A
:1058C40008031B041B0C83807047C04621B18388E6
:1058D4009BB243F0010304E0838823F001031B041B
:1058E4001B0C83807047C046038B23F008031B0402
:1058F4001B0C194301837047038B23F400631B04BF
:105904001B0C43EA01239BB203837047838B23F070
:1059140008031B041B0C194381837047838B23F4F6
:1059240000631B041B0C43EA01239BB2838370476F
:10593400038B23F004031B041B0C194301837047DE
:10594400038B23F480631B041B0C43EA01239BB2E7
:1059540003837047838B23F004031B041B0C19433C
:1059640081837047838B23F480631B041B0C43EAFD
:1059740001239BB283837047038B23F080031B04B2
:105984001B0C194301837047038B5B045B0C43EAD4
:1059940001239BB203837047838B23F080031B0492
:1059A4001B0C194381837047838B5B045B0C43EAB4
:1059B40001239BB283837047038C23F002031B04EF
:1059C4001B0C194301847047038C23F008031B0448
:1059D4001B0C194301847047038C23F020031B0420
:1059E4001B0C43EA01139BB203847047038C23F01E
:1059F40080031B041B0C43EA01139BB2038470470E
:105A0400038C23F400731B041B0C43EA01239BB295
:105A140003847047038C23F400631B041B0C43EAC8
:105A240001239BB203847047038C23F400531B04AB
:105A34001B0C43EA01339BB20384704701238B4060
:105A44008A40B0F820C01FFA8CFC2CEA030CA0F8A2
:105A540020C0038C1A4392B20284704704238B4003
:105A64008A40B0F820C01FFA8CFC2CEA030CA0F882
:105A740020C0038C1A4392B20284704701238B40E6
:105A84009446028C82B092B222EA0302082914BF1F
:105A940000230123002908BF43F00103019002847D
:105AA4006BB110F11802490850584FF68F7300EA91
:105AB40003035350535843EA0C03535010E0019826
:105AC4000A1F92B218305208815848F6FF7301EA4F
:105AD4000303835081584FEA0C239BB2194381502E
:105AE40002B0704721B103889BB243F0020304E083
:105AF400038823F002039B059B0D03807047C04677
:105B040021B103889BB243F0040304E0038823F02B
:105B140004039B059B0D03807047C04621B1838815
:105B24009BB243F0800304E0838823F080031B04CA
:105B34001B0C83807047C046038823F008039B0531
:105B44009B0D038003889BB2194301807047C046B4
:105B5400838823F070031B041B0C838083889BB20F
:105B6400194381807047C046038923F007031B044F
:105B74001B0C038103899BB2194301817047C04602
:105B8400038923F080031B041B0C038103899BB24C
:105B9400194301817047C0468184704781857047ED
:105BA400818670470187704781877047A0F840104D
:105BB4007047C046038B23F00C031B041B0C0383A8
:105BC400038B9BB2194301837047C046038B23F4B4
:105BD40040631B041B0C0383038B9BB243EA012326
:105BE4009BB203837047C046838B23F00C031B04D2
:105BF4001B0C8383838B9BB2194381837047C046FC
:105C0400838B23F440631B041B0C8383838B9BB221
:105C140043EA01239BB283837047C0460388DBB207
:105C2400038003889BB2194301807047808E80B241
:105C34007047C046008F80B27047C046808F80B2E4
:105C44007047C046B0F8400080B27047808C80B284
:105C54007047C046008D80B27047C046038A19421F
:105C64000CBF0020012070476FEA010189B2018254
:105C74007047C046038A828919420CBF0020012064
:105C840011420CBF002000F0010070476FEA0101CF
:105C940089B201827047C04600B52F4B83B0984249
:105CA400019037D00BD8A3F50063984226D003F5B2
:105CB4008063984228D0B0F1804F4AD118E0274B36
:105CC400984233D004D8A3F58063984241D127E0A9
:105CD400234B984204D003F50063984239D12EE057
:105CE4004FF400600121FFF7BFF84FF400602DE08E
:105CF40001200121FFF7C6F801201CE00220012148
:105D0400FFF7C0F8022016E004200121FFF7BAF8DB
:105D1400042010E008200121FFF7B4F808200AE06D
:105D240010200121FFF7AEF8102004E0202001210B
:105D3400FFF7A8F820200021FFF7A4F809E04FF4AA
:105D440000500121FFF790F84FF400500021FFF7B5
:105D54008BF803B000BDC046000C004000140040A6
:105D6400002C01404FF4165303604FF0000383806E
:105D7400C38003814FF00C0343814FF00003838100
:105D84007047C046B1F800C04B88028A43EA0C034E
:105D9400B1F804C0C98822F4706243EA0C03120407
:105DA4000B43120C9BB21343038270474FF0000362
:105DB400038043808380C3807047C04621B18389B8
:105DC4009BB243F4005304E0838923F400531B047F
:105DD4001B0C83817047C046CBB24FEA531C01F0C1
:105DE4001F01012382B013FA01F1BCF1010F0190EC
:105DF40001D10C3005E0BCF1020F01D1103000E0FC
:105E0400143012B103680B4302E0036823EA010370
:105E1400036002B07047C04622B1838A9BB241EA54
:105E2400030303E0838A9BB223EA0103838270475E
:105E3400038A23F00F031B041B0C0382038A9BB207
:105E44000B4303827047C046838923F400631B0419
:105E54001B0C838183899BB2194381817047C0469F
:105E640021B183899BB243F0020304E0838923F0C8
:105E740002031B041B0C83817047C046038A23F072
:105E840020031B041B0C0382038A9BB21943018267
:105E94007047C04621B1038A9BB243F4804304E0B7
:105EA400038A23F480431B041B0C03827047C046FF
:105EB400C905C90D818070478088C005C00D704731
:105EC40083899BB243F0010383817047038BDBB268
:105ED4000383038B9BB243EA012303837047C046C9
:105EE400038B03F47F430383038B9BB20B43038332
:105EF4007047C04621B1838A9BB243F0200304E07B
:105F0400838A23F020031B041B0C83827047C04642
:105F140021B1838A9BB243F0100304E0838A23F007
:105F240010031B041B0C83827047C04621B1838A73
:105F34009BB243F0080304E0838A23F008031B04A4
:105F44001B0C83827047C046838A23F004031B041E
:105F54001B0C8382838A9BB2194381827047C0469B
:105F640021B1838A9BB243F0020304E0838A23F0C5
:105F740002031B041B0C83827047C046038819422A
:105F84000CBF0020012070476FEA010189B2018033
:105F94007047C046CBB24FEA531C01F01F020123E5
:105FA40013FA02F2BCF1010F08BF838904D0BCF1DB
:105FB400020F0CBF038A838A9BB202EA030C0B0A0A
:105FC40001229A4003889BB21A420CBF0020012090
:105FD400BCF1000F0CBF002000F001007047C04668
:105FE400090A01238B406FEA03039BB203807047C5
:105FF400038ACA8823F440531B041B0C13430382F3
:10600400828970B50B890E46898822F4B0520B43FD
:10601400718922F00C020B431204120C9BB213433D
:106024008381838AB28923F440731B041B0C88B0D8
:106034001343054683820190044603A8FEF78EFEAF
:10604400104B11489D420CBF069B059B03EB83013B
:10605400336801EB81019B00B1FBF3F1A1FB002349
:1060640064224FEA531C0CFB121212013232A2FBBF
:1060740000235B0903F00F0343EA0C139BB22B814B
:1060840008B070BD003801401F85EB5100B5224BAC
:1060940083B0984201902BD008D8A3F500639842AE
:1060A40016D003F58063984234D119E01B4B984213
:1060B40026D003F5684398422CD101214FF4804047
:1060C400FEF7D2FE4FF480400021FEF7CDFE21E022
:1060D4004FF400300121FEF7D5FE4FF4003016E0F6
:1060E4004FF480200121FEF7CDFE4FF480200EE016
:1060F4004FF400200121FEF7C5FE4FF4002006E016
:106104004FF480100121FEF7BDFE4FF480100021F2
:10611400FEF7B8FE03B000BD004C00400050004044
:1061240030BF704720BF704740BF7047BFF36F8FC9
:106134007047BFF34F8F7047BFF35F8F704701DF26
:106144007047EFF31480704780F31488BFF36F8FA8
:106154007047EFF30980704780F309887047EFF3C5
:106164000880704780F30888704772B6704762B63B
:10617400704771B6704761B6704780F311887047F5
:10618400EFF31280704740BA704700BA70470000BE
:106194002DF0070168468D4601B500220C49DFF851
:1061A40034C00D4802E083588B50043201EB0203E3
:1061B4006345F8D3094B0A49002201E043F8042B54
:1061C4008B42FBD3FDF76AFBBDE80140854670476F
:1061D400000000202C000020FC6100082C0000209E
:1061E4007402002000000000010203040102030401
:0861F400060708090204060871
:1061FC0040420F0000E100006400010203040506A8
:10620C00C8002003FA00F401C800F401C800200300
:0C621C00F401EE02F40120030100000078
:00000001FF
